:020000040000FA
:100000000C9415040C94AE0E0C94830E0C94580EA4
:100010000C942D0E0C94020E0C94D70D0C94AC0D78
:100020000C94810D0C9446040C9446040C944604E4
:100030000C9446040C9446040C9446040C94460418
:100040000C9446040C9446040C9446040C94460408
:100050000C9446040C9446040C9446040C94370DFE
:100060000C9446040C94030F0C94D90E0C94460483
:100070000C9446040C9446040C9446040C944604D8
:100080000C9446040C9446040C9446040C944604C8
:100090000C9446040C9446040C9446040C944604B8
:1000A0000C9446040C9446040C9446040C944604A8
:1000B0000C9446040C9446040C9446040C94460498
:1000C0000C9446040C9446040C9446040C94460488
:1000D0000C9446040C9446040C9446040C94460478
:1000E0000C9446040C94F5050C9454090C948F045C
:1000F0000C941A060C94A6040C9493040C944E0BC6
:100100000C949D040C9470040C947B040C94A70430
:100110000C9499040C9478060C9481040C94AB0410
:100120000C9474040C94390F0C946C040C946A06AF
:100130000C94B0060C9447060C94A1040C9456063B
:100140000C94BD050C9485040C9466040C9453091E
:100150000C948B040C94FD060C947804202D3E2006
:10016000005B41546D656761323536305D205377F1
:1001700069746368696E6720536F757263653A20AE
:1001800000005EBCE2613FDD83C29C7E20A3FD1FB8
:1001900041009D23BE46DB65F88C11AF32CA57E99A
:1001A000745B41546D656761323536305D20506552
:1001B000726970686572616C73202620496E74657F
:1001C00072727570747320496E697469616C697AB2
:1001D00065642E2052656164792E00436F6E7472DF
:1001E0006F6C2048756220526561647900477269BE
:1001F00064666C6F77582076342E302020003D3DA9
:100200003D3D3D3D3D3D3D3D3D3D3D3D3D3D3D3D1E
:100210003D3D3D3D3D3D3D3D3D3D3D3D3D3D3D3D0E
:100220003D3D3D3D3D3D3D3D3D3D3D3D3D3D3D3DFE
:10023000005B41546D656761323536305D20506139
:1002400072616C6C656C204C4D3031364C2031360F
:10025000783220446973706C6179204163746976E7
:1002600065005B41546D656761323536305D20470E
:10027000726964666C6F7758204D6963726F67723C
:10028000696420436F6E74726F6C6C657220426F8C
:100290006F74696E67003D3D3D3D3D3D3D3D3D3DDB
:1002A0003D3D3D3D3D3D3D3D3D3D3D3D3D3D3D3D7E
:1002B0003D3D3D3D3D3D3D3D3D3D3D3D3D3D3D3D6E
:1002C0003D3D3D3D3D3D3D3D005B41546D656761BC
:1002D000323536305D20416C6C204C6F6164732088
:1002E00053686564005B41546D6567613235363033
:1002F0005D20416C6C204C6F6164732041637469B4
:100300007661746564005B41546D656761323536B2
:10031000305D20546F67676C656420546965722096
:1003200033204C6F77205072696F72697479204C5A
:100330006F616420284C3129005B41546D65676111
:10034000323536305D20546F67676C6564205469C0
:1003500065722032204E6F726D616C204C6F61644B
:1003600020284C3329005B41546D65676132353676
:10037000305D20546F67676C656420546965722036
:100380003120437269746963616C204C6F61642031
:10039000284C3229005B41546D6567613235363037
:1003A0005D204D616E75616C20536F757263653AA7
:1003B00020414C4C20534F55524345532049534FF5
:1003C0004C41544544005B41546D6567613235369C
:1003D000305D2052652D656E67616765643A204126
:1003E00055544F205052494F5249545920454E4779
:1003F000494E45005B41546D656761323536305D6D
:10040000204D616E75616C20536F7572636520417C
:1004100063746976617465643A205554494C495453
:10042000592047524944005B41546D65676132353C
:1004300036305D204D616E75616C20536F7572634F
:1004400065204163746976617465643A2042415461
:1004500054455259005B41546D6567613235363001
:100460005D204D616E75616C20536F757263652000
:100470004163746976617465643A20534F4C41520C
:10048000205056004D414E55414C004155544F00AF
:100490005B41546D656761323536305D204D6F6468
:1004A0006520546F67676C65643A200043005620EE
:1004B000543A0041433A005600562042413A005017
:1004C000563A00414C4C204C4F4144533A204F4641
:1004D0004600414C4C204C4F4144533A204F4E0073
:1004E0004F4646004F4E20004C4F572020284C319D
:1004F000293A20004F4646004F4E20004E4F524DA5
:1005000020284C33293A20004F4646004F4E200009
:100510004849474820284C32293A20003E20004CC8
:100520004F414420434F4E54524F4C3A005B41439D
:10053000545D00414C4C204F4646202000205B4F2C
:100540004E5D004155544F204D4F4445005B4143A3
:10055000545D00475249442041432020005B414301
:10056000545D00424154544552592020005B4143A0
:10057000545D00534F4C415220505620003E200005
:10058000534F555243452053454C4543543A00562A
:100590000030003100200030003100204C3A0030A3
:1005A000003100204E3A005B4D414E5D005B4155ED
:1005B000545D00483A004F464620202000475249EB
:1005C0004420200042415454202000534F4C4152BB
:1005D00020005352433A00300031003000310020F7
:1005E0004C3A0030003100204E3A00207C204C6F05
:1005F0006164733A20483A004F46460047524944E6
:10060000004241545445525900534F4C415200202E
:100610007C2041637469766520536F757263653A17
:100620002000454D455247454E43592053544F50A5
:10063000004641554C54004D414E55414C004155EA
:10064000544F005B41546D656761323536305D2033
:100650004D6F64653A200020C2B043002041207CE9
:100660002054656D703A20005B41546D65676132BE
:100670003536305D204573742E2043757272656E79
:10068000743A20002056002056207C20477269646E
:100690003A20002056207C20426174743A20005B8E
:1006A00041546D656761323536305D2050563A20D1
:1006B000002D2D2D2D2D2D2D2D2D2D2D2D2D2D2D97
:1006C0002D2D2D2D2D2D2D2D2D2D2D2D2D2D2D2D5A
:1006D0002D2D2D2D2D2D2D2D2D2D2D2D2D2D2D2D4A
:1006E0002D2D2D0053595354454D204C4F434B4510
:1006F00044204F5554002A2A2A20452D53544F5048
:10070000202A2A2A20200000002100240027002A75
:10071000002D003000330001010000040107010A30
:100720000100002200250028002B002E003100349B
:100730000002010000050108010B0100000A0B0284
:10074000090C0D0E08070304010000000000000062
:100750000000000000000000000000000000000099
:100760000000000000000012111000000000000056
:100770000000000000000000000000000000000079
:1007800000000020002300260029002C002F00324A
:100790000000010000030106010901050505050728
:1007A0000508080808020202020A0A0808040404EC
:1007B0000401010101010101010303030303030318
:1007C00003040707070C0C0C0C0C0C0C0C020202A7
:1007D0000206060606060606060B0B0B0B0B0B0B9A
:1007E0000B01021020200808102040102040800239
:1007F0000102010804020101020408102040808067
:1008000040201008040201800402018040201008EA
:1008100004020108040201010204081020408001C2
:100820000204081020408000390F11241FBECFEFB2
:10083000D1E2DEBFCDBF00E00CBF12E0A0E0B2E02D
:10084000E2E4FCE300E00BBF02C007900D92A43786
:10085000B107D9F723E0A4E7B2E001C01D92A638A2
:10086000B207E1F714E0C5E1D4E000E006C021974B
:100870000109802FFE010E94031EC431D10780E0D0
:100880000807A9F70E94B50F0C941F1E0C940000D6
:100890008150823108F05AC0E82FF0E08827EC5AE6
:1008A000FB4F8F4F0C94031E7404780466046C0491
:1008B0007004A6047B04810485048B048F049304D4
:1008C00099049D04A604A104A704AB0480918000B0
:1008D0008F77809380000895809180008F7DF9CF7D
:1008E00080918000877FF5CF84B58F7784BD089590
:1008F00084B58F7DFBCF8091B0008F778093B0005F
:1009000008958091B0008F7DF9CF809190008F770E
:10091000809390000895809190008F7DF9CF809111
:100920009000877FF5CF8091A0008F778093A00003
:1009300008958091A0008F7DF9CF8091A000877FDE
:10094000F5CF809120018F778093200108958091C9
:1009500020018F7DF9CF80912001877FF5CFCF9344
:10096000DF93282F30E0F901E55CF84F8491F9011D
:10097000EF51F84FD491F901E556F84FC491CC23CB
:10098000A1F081110E944804EC2FF0E0EE0FFF1F50
:10099000EF57F84FA591B491EC91ED2381E090E0F1
:1009A00009F480E0DF91CF91089580E090E0FACFE4
:1009B0001F93CF93DF93282F30E0F901E55CF84FC8
:1009C0008491F901EF51F84FD491F901E556F84FB0
:1009D000C491CC23A9F0162F81110E944804EC2F5A
:1009E000F0E0EE0FFF1FEF5DF84FA591B4918FB7C8
:1009F000F894EC91111108C0D095DE23DC938FBFE1
:100A0000DF91CF911F910895DE2BF8CFCF93DF9325
:100A100090E0FC01EF51F84F24918556984FFC016E
:100A200084918823C9F090E0880F991FFC01E95F49
:100A3000F84FA591B491FC01EF5DF84FC591D491A9
:100A400061110DC09FB7F8948C91209582238C93EF
:100A50008881282328839FBFDF91CF91089562303A
:100A600051F49FB7F8943C91822F809583238C9307
:100A7000E8812E2BEFCF8FB7F894EC912E2B2C938F
:100A80008FBFEACF90917B00977F90937B00865336
:100A9000806480937C0080917A00806480937A00E7
:100AA00080917A0086FDFCCF80917800909179004A
:100AB00008953FB7F8948091A8029091A902A0915F
:100AC000AA02B091AB0226B5A89B05C02F3F19F032
:100AD0000196A11DB11D3FBFBA2FA92F982F8827BE
:100AE000BC01CD01620F711D811D911D42E0660F99
:100AF000771F881F991F4A95D1F708958F929F926B
:100B0000AF92BF92CF92DF92EF92FF926B017C0186
:100B10000E9459054B015C01C114D104E104F104A8
:100B2000B9F00E945905681979098A099B09683E3C
:100B300073408105910580F321E0C21AD108E108D4
:100B4000F10888EE880E83E0981EA11CB11CE4CF4A
:100B5000FF90EF90DF90CF90BF90AF909F908F90DD
:100B600008952FB7F8946091A4027091A502809126
:100B7000A6029091A7022FBF089560E083E20E9431
:100B8000D80460E084E20E94D80460E085E20E941C
:100B9000D80460E082E20E94D80460E081E20E9412
:100BA000D80460E080E20E94D80460E083E30E9401
:100BB000D80460E082E30E94D80460E085E30E94EC
:100BC000D80460E08DE00E94D80460E08AE00E94D2
:100BD000D80460E08BE00E94D80461E08CE00E94C1
:100BE000D80481E08093A20208950895EF92FF92C5
:100BF0000F931F93CF93DF938C017B01D0E0C0E074
:100C0000F701EC0FFD1F6491662361F0D801ED91AF
:100C1000FC910190F081E02DC8011995892B11F00C
:100C20002196EECFCE01DF91CF911F910F91FF90D2
:100C3000EF900895AF92BF92CF92DF92EF92FF9222
:100C40000F931F93CF93DF936C017B018B01040FF4
:100C5000151FEB015E01AE18BF08C017D10759F090
:100C60006991D601ED91FC910190F081E02DC601D2
:100C70001995892B79F7C501DF91CF911F910F91BC
:100C8000FF90EF90DF90CF90BF90AF900895FC0160
:100C9000538D448D252F30E0842F90E0821B930BE1
:100CA000541710F0CF96089501970895FC01918D87
:100CB000828D981761F0A28DAE0FBF2FB11D5D968A
:100CC0008C91928D9F5F9F73928F90E008958FEF2C
:100CD0009FEF0895FC01918D828D981731F0828DE0
:100CE000E80FF11D858D90E008958FEF9FEF089537
:100CF000FC01918D228D892F90E0805C9F4F821B9B
:100D000091098F73992708958CEA92E00E947806E2
:100D100021E0892B09F420E0822F0895FC01A48DA5
:100D2000A80FB92FB11DA35ABF4F2C91848D90E00D
:100D300001968F739927848FA689B7892C93A089F0
:100D4000B1898C91837080648C93938D848D98137A
:100D500006C00288F389E02D80818F7D808308950D
:100D6000EF92FF920F931F93CF93DF93EC0181E0FB
:100D7000888F9B8D8C8D98131AC0E889F9898081A2
:100D800085FF15C09FB7F894EE89FF896083E889D5
:100D9000F98980818370806480839FBF81E090E0C7
:100DA000DF91CF911F910F91FF90EF900895F62E54
:100DB0000B8D10E00F5F1F4F0F731127E02E8C8DEE
:100DC0008E110CC00FB607FCFACFE889F989808133
:100DD00085FFF5CFCE010E948E06F1CFEB8DEC0F93
:100DE000FD2FF11DE35AFF4FF0829FB7F8940B8F50
:100DF000EA89FB8980818062CFCFCF93DF93EC01BA
:100E0000888D8823B9F0AA89BB89E889F9898C91F2
:100E100085FD03C0808186FD0DC00FB607FCF7CFAE
:100E20008C9185FFF2CF808185FFEDCFCE010E94AE
:100E30008E06E9CFDF91CF91089580E090E0892B75
:100E400029F00E94840681110E94000080E090E059
:100E5000892B49F080E090E0892B29F00E94000066
:100E600081110E94000080E090E0892B49F080E031
:100E700090E0892B29F00E94000081110E9400005F
:100E800080E090E0892B49F080E090E0892B29F008
:100E90000E94000081110C9400000895DC0180E0A4
:100EA000615090F09D919827E92FEF70F0E0EF5797
:100EB000FE4F2491E92FE295EF70F0E0EF56FE4FE0
:100EC000E491822F8E27ECCF0895FC0113861586BE
:100ED0001486128611861086178216821582148255
:100EE00013820895DC012C911196ED91FC91F894F8
:100EF0008181822B81839281322F3095932392833B
:100F000087E090E00197F1F781818323818383E279
:100F100090E00197F1F790817894EFECF0E0319751
:100F2000F1F7922381E009F480E00895FC019081BB
:100F30000180F281E02D292F209560FF14C0F894E4
:100F40008281822382838181892B8183A3E2B0E025
:100F50001197F1F78281982B9283789487ED90E036
:100F60000197F1F70895F894828182238283818129
:100F7000892B8183AFEFB0E01197F1F78281982B35
:100F8000928378948FE090E0EBCFDF92EF92FF9224
:100F90000F931F93CF93DF93EC01D62EE42E08E03E
:100FA00010E0FF24F39461E08D2D8F2109F460E0BF
:100FB000CE010E949607FF0C01501109A1F7E11024
:100FC00010C0F894E981FA81918188818095892304
:100FD0008183E981FA819281888180958923828346
:100FE0007894DF91CF911F910F91FF90EF90DF9058
:100FF0000895EF92FF920F931F93CF93DF938C018D
:101000007B0140E065E50E94C507E70188E0E80E46
:10101000F11C699140E0C8010E94C507CE15DF05AB
:10102000C1F7DF91CF911F910F91FF90EF9008953D
:10103000FC0190810180F281E02DF8948181292FBB
:1010400020958223818378943DE743E050E031503E
:1010500029F1DA011197F1F780818923C1F3F8941E
:101060008281822382838181892B81837894ABE77B
:10107000B7E01197F1F7F894818182238183A3E18E
:10108000B1E01197F1F78081982381E009F080E0C9
:101090007894E3E6F6E03197F1F7089580E008955B
:1010A0008F929F92AF92BF92CF92DF92EF92FF9278
:1010B000CF93DF9300D01F921F92CDB7DEB7809100
:1010C0005203909153030E94180840E06CEC809109
:1010D0005203909153030E94C5074091490364E471
:1010E00080915203909153030E94C5070E94B1055D
:1010F0006B017C0180914D0381111EC081E08983C9
:10110000CA82DB82EC82FD8229813A814B815C813B
:101110006D8170E080E090E00F900F900F900F9045
:101120000F90DF91CF91FF90EF90DF90CF90BF9025
:10113000AF909F908F90089580914E038823C1F0C7
:1011400080914903811114C08091520390915303FF
:101150000E947207813091F20E94B1056C197D09DD
:101160008E099F096E3E72408105910568F3C6CFD6
:10117000E0914C03E9508EEE92E0E33038F4F0E079
:10118000EE0FFF1FE05CFD4F808191814C01B12C7F
:10119000A12C80914A03882329F060E080914B03C1
:1011A0000E94D804C501B4010E947E0580914A03C3
:1011B000882309F4A3CF61E080914B030E94D804F7
:1011C0009DCF6F927F928F929F92AF92BF92CF925C
:1011D000DF92EF92FF920F931F93CF93DF938C01D7
:1011E000EB0180915203909153030E9418088823C9
:1011F00009F43FC0B80180915203909153030E94BB
:10120000F90740E06EEB80915203909153030E94E6
:10121000C5077E016E0189E0C80ED11C8E01A09029
:101220005203B090530388E0882E912C712C6624D1
:101230006394C5010E94720781117628660CE1E073
:101240008E1A9108B1F7F80171928F01CE16DF0660
:1012500031F780915203909153030E941808813016
:1012600041F4F70181917F01811105C0E017F10779
:10127000C1F790E008C068E0CE010E944E0791E0FF
:1012800028852813F6CF892FDF91CF911F910F91D9
:10129000FF90EF90DF90CF90BF90AF909F908F9096
:1012A0007F906F900895089590E080E00895CF9327
:1012B000DF939091A20291111BC080933C02C82F32
:1012C000D0E0682F617082E20E94D804BE0175955B
:1012D0006795617081E20E94D804D595C795D59530
:1012E000C7956C2F617080E2DF91CF910C94D80488
:1012F000DF91CF910895BF92CF92DF92EF92FF924C
:101300000F931F93CF93DF93EC01B62EC72E8D85DD
:10131000811105C0CE010E94180881110EC01B86E4
:101320001D861C8680E0DF91CF911F910F91FF9069
:10133000EF90DF90CF90BF90089540E060EFCE0136
:101340000E94C50701E0E12CD12C11E0CE010E94E2
:101350007207F82ECE010E94720791E0F91218C0B0
:10136000813099F51134D8F2DB86D11002C081E0CA
:101370008D878B81882399F22396EB2DFC2DCF014D
:10138000089629912193E817F907D9F781E0CBCF87
:10139000EE2DF0E0F8120FC08B851817A0F4DE01D7
:1013A000AE0FBF1F13968C91802379F4F12C193066
:1013B00008F41C87D12EEC0FFD1F8381902F909590
:1013C000892383830AC08113F1CFFE01EE0DF11D45
:1013D0008381802B8383FF24F3946F2DCE010E94A1
:1013E00096071F5F000F11F4E39401E087E08E156C
:1013F00008F0ACCFB7CFCF93DF93EC0160E08E81E4
:101400000E94D80461E08E810E94D80460E08E8141
:101410000E94D8048BE891E00197F1F7DF91CF911A
:101420000895CF92DF92EF92FF920F931F93CF9385
:10143000DF936C017C0187E0E80EF11CD0E0C0E096
:10144000062F10E0B8010C2E02C0759567950A941E
:10145000E2F76170F70181917F010E94D804219623
:10146000C430D10579F7C601DF91CF911F910F915B
:10147000FF90EF90DF90CF900C94FB09CF92DF921A
:10148000EF92FF920F931F93CF93DF93EC01F62E11
:10149000642F8C810E94D8048D818F3F19F060E009
:1014A0000E94D8040F2D10E08F8584FF25C06E01A7
:1014B00087E0C80ED11CF12CE12CB8010E2C02C023
:1014C000759567950A94E2F76170F60181916F0155
:1014D0000E94D804FFEFEF1AFF0A88E0E816F10433
:1014E00061F7CE01DF91CF911F910F91FF90EF90A7
:1014F000DF90CF900C94FB09B80184E07595679557
:101500008A95E1F7CE010E94110A6F2DCE01DF917D
:10151000CF911F910F91FF90EF90DF90CF900C949F
:10152000110A40E0682F8EE693E00C943E0A81E0B9
:101530000E94910A8BE39FE10197F1F70895CF9301
:10154000DF93823029F490917D03986090937D031E
:10155000809381031092820380E48093830380E16F
:101560008093840380E58093850361E0809172031A
:101570000E940605809173038F3F19F061E00E947D
:10158000060561E0809174030E940605CEE6D3E073
:101590009E012E56334080917D0384FD0BC084E074
:1015A00090E021962817390744F461E08E810E946B
:1015B0000605EECF88E090E0F4CF8BE39DE0019745
:1015C000F1F760E0809172030E94D80460E080919E
:1015D00074030E94D804809173038F3F19F060E078
:1015E0000E94D80480917D0384FD34C063E08EE6C0
:1015F00093E00E94110ACBE4D6E4CE010197F1F703
:1016000063E08EE693E00E94110A2197F1F763E010
:101610008EE693E00E94110A83E592E00197F1F7CC
:1016200062E08EE693E00E94110A80917D03806261
:101630000E94910A84E080937E038CE00E94910ACC
:101640000E94970A82E080937F0386E0DF91CF912A
:101650000C94910A80620E94910A8BE496E40197AF
:10166000F1F780917D0380620E94910A83E592E008
:101670000197F1F780917D0380620E94910AD5CF96
:1016800090918103891710F08FEF890FE82FF0E018
:10169000E259FC4F848980680C94910A41E00E94D1
:1016A0003E0A81E090E00895FB0101900020E9F7F7
:1016B0003197AF01461B570BDC01ED91FC91028085
:1016C000F381E02D1994CF93DF93BC018CEA92E073
:1016D0000E94F605EC0164E672E08CEA92E00E945A
:1016E000540B8C0F9D1FDF91CF9108958F929F9285
:1016F000AF92BF92EF92FF920F931F93CF93DF931E
:10170000CDB7DEB7A1970FB6F894DEBF0FBECDBF41
:101710007C01FA01CB0119A2223008F42AE08E01E3
:101720000F5D1F4F822E912CB12CA12CBF01A50162
:1017300094010E94E11DF901CA016A300CF5605D57
:10174000D8016E938D01232B242B252B79F790E064
:1017500080E0109721F0BD01C7010E94540BA196B3
:101760000FB6F894DEBF0FBECDBFDF91CF911F91B2
:101770000F91FF90EF90BF90AF909F908F90089542
:10178000695CDECFCF92DF92EF92FF92CF93DF932F
:101790006B017C016DE28CEA92E00E94B006EC01E4
:1017A00044275527BA014C195D096E097F092AE0C3
:1017B0008CEA92E00E94760B8C0F9D1FDF91CF91F7
:1017C000FF90EF90DF90CF900895CF93DF9320911B
:1017D000A202211152C020919E0230919F0228172F
:1017E000390709F44AC0EC0161E671E08CEA92E045
:1017F0000E94F60540919E0250919F02052E000C1A
:10180000660B770B77FF3CC0CB01BA010E94C20B7D
:101810006CE571E08CEA92E00E94F605AE0170E0A2
:1018200060E02AE08CEA92E00E94760B64E672E0C7
:101830008CEA92E00E94540B60E083E20E94D8049C
:1018400060E084E20E94D80460E085E20E94D8044F
:101850006CE370E080E090E00E947E05C230D1052C
:10186000A9F0C330D105B9F061E083E2C130D10500
:1018700079F0D0939F02C0939E02DF91CF9108959B
:101880002AE08CEA92E00E94760BC2CF61E084E20B
:101890000E94D804EECF61E085E2FACF4F925F92CA
:1018A0006F927F928F929F92AF92BF92CF92DF9270
:1018B000EF92FF920F931F93CF93DF93EC016A0196
:1018C0007B01922EAB019601CB01B6010E94C81D8F
:1018D00067E672E0811126C026013701E89477F8A7
:1018E0002FEF3FEF4FE75FE7C301B2010E94C81D32
:1018F00081110CC02FEF3FEF4FE75FE7C301B2014B
:101900000E94FE1B6BE672E0181664F02FEF3FEFAB
:101910004FE75FE4C701B6010E94561D1816ACF4EC
:101920006FE672E0CE01DF91CF911F910F91FF9092
:10193000EF90DF90CF90BF90AF909F908F907F906F
:101940006F905F904F900C94540B2FEF3FEF4FE749
:101950005FECC701B6010E94FE1B87FDE1CF20E0CE
:1019600030E0A901C701B6010E94FE1BB12CA12CD9
:1019700087FF0DC0E881F9810190F081E02D6DE2D3
:10198000CE0119955C01F7FAF094F7F8F094192D4F
:1019900060E070E080E09FE300E020E030E040E2C3
:1019A00051E40E94031C21E0200F01E02915A8F357
:1019B000A70196010E94921B2B013C010E94751CFD
:1019C0006B017C010E94A41C9B01AC01C301B2010C
:1019D0000E94911B2B013C012AE0B701A601CE0118
:1019E0000E94760B7C01E881F9810190F081E02D65
:1019F0006EE2CE011995E80EF91EEA0CFB1C11509F
:101A000020F120E030E040E251E4C301B2010E9445
:101A10005B1D2B013C010E94751C4B01B12CA12CBC
:101A20002AE0B501A401CE010E94760BE80EF91E52
:101A3000C501B4010E94A41C9B01AC01C301B20109
:101A40000E94911B2B013C01DACFC701DF91CF919E
:101A50001F910F91FF90EF90DF90CF90BF90AF90CC
:101A60009F908F907F906F905F904F9008951F92FE
:101A70000F920FB60F9211242F933F938F939F9342
:101A8000AF93BF938091A4029091A502A091A6026A
:101A9000B091A7023091A30223E0230F2D3758F510
:101AA0000196A11DB11D2093A3028093A4029093DF
:101AB000A502A093A602B093A7028091A8029091DC
:101AC000A902A091AA02B091AB020196A11DB11D7D
:101AD0008093A8029093A902A093AA02B093AB02AC
:101AE000BF91AF919F918F913F912F910F900FBE1A
:101AF0000F901F90189526E8230F0296A11DB11D87
:101B0000D2CF1F920F920FB60F9211240BB60F92E5
:101B10002F933F934F935F936F937F938F939F93F5
:101B2000AF93BF93EF93FF93E0910E02F0910F02FA
:101B30001995FF91EF91BF91AF919F918F917F91F7
:101B40006F915F914F913F912F910F900BBE0F902E
:101B50000FBE0F901F9018951F920F920FB60F9205
:101B600011240BB60F922F933F934F935F936F9374
:101B70007F938F939F93AF93BF93EF93FF93E091E6
:101B80000C02F0910D021995FF91EF91BF91AF9169
:101B90009F918F917F916F915F914F913F912F9185
:101BA0000F900BBE0F900FBE0F901F9018951F92B5
:101BB0000F920FB60F9211240BB60F922F933F93F3
:101BC0004F935F936F937F938F939F93AF93BF9345
:101BD000EF93FF93E0910202F09103021995FF91B8
:101BE000EF91BF91AF919F918F917F916F915F9195
:101BF0004F913F912F910F900BBE0F900FBE0F9002
:101C00001F9018951F920F920FB60F9211240BB6CA
:101C10000F922F933F934F935F936F937F938F9385
:101C20009F93AF93BF93EF93FF93E0910002F091E6
:101C300001021995FF91EF91BF91AF919F918F9103
:101C40007F916F915F914F913F912F910F900BBEBC
:101C50000F900FBE0F901F9018951F920F920FB606
:101C60000F9211240BB60F922F933F934F935F93D4
:101C70006F937F938F939F93AF93BF93EF93FF9354
:101C8000E0910A02F0910B021995FF91EF91BF913B
:101C9000AF919F918F917F916F915F914F913F9104
:101CA0002F910F900BBE0F900FBE0F901F901895A5
:101CB0001F920F920FB60F9211240BB60F922F9313
:101CC0003F934F935F936F937F938F939F93AF93C4
:101CD000BF93EF93FF93E0910802F09109021995E9
:101CE000FF91EF91BF91AF919F918F917F916F91F4
:101CF0005F914F913F912F910F900BBE0F900FBEB0
:101D00000F901F9018951F920F920FB60F921124EB
:101D10000BB60F922F933F934F935F936F937F93E5
:101D20008F939F93AF93BF93EF93FF93E09106023E
:101D3000F09107021995FF91EF91BF91AF919F919B
:101D40008F917F916F915F914F913F912F910F9064
:101D50000BBE0F900FBE0F901F9018951F920F9201
:101D60000FB60F9211240BB60F922F933F934F9300
:101D70005F936F937F938F939F93AF93BF93EF93F3
:101D8000FF93E0910402F09105021995FF91EF9104
:101D9000BF91AF919F918F917F916F915F914F9183
:101DA0003F912F910F900BBE0F900FBE0F901F9081
:101DB00018951F920F920FB60F9211240BB60F9227
:101DC0002F933F934F935F936F937F938F939F9343
:101DD000AF93BF93EF93FF938CEA92E00E948E063D
:101DE000FF91EF91BF91AF919F918F917F916F91F3
:101DF0005F914F913F912F910F900BBE0F900FBEAF
:101E00000F901F9018951F920F920FB60F921124EA
:101E10000BB60F922F938F939F93EF93FF93E091C5
:101E2000BC02F091BD028081E091C202F091C30238
:101E300082FD1DC090818091C5028F5F8F732091BC
:101E4000C602821741F0E091C502F0E0E455FD4F73
:101E5000958F8093C502FF91EF919F918F912F9164
:101E60000F900BBE0F900FBE0F901F9018958081A2
:101E7000F2CF1F93CF93DF93ECEAF2E0138212824A
:101E800088EE93E0A0E0B0E084839583A683B783D7
:101E90008AE492E09183808385EC90E09587848743
:101EA00084EC90E09787868780EC90E0918B808B24
:101EB00081EC90E0938B828B82EC90E0958B848B0D
:101EC00086EC90E0978B868B118E128E138E148E7B
:101ED000EEE6F3E0138212828CE592E09183808338
:101EE00086E184831FEF158387E1868388E18783FA
:101EF00089E180878AE181878BE182871386148656
:101F000015861686178681E00E949F0A60E089E2A6
:101F10000E940605EAE0F8E0E491C0E6D3E0E88339
:101F2000E4ECF7E0E491F0E0EE0FFF1FEF57F84F1D
:101F3000859194919A838983CE010E946507E9E493
:101F4000F3E017821086108289E0838381E0848326
:101F5000858386831182168A158A138B148AD28709
:101F6000C187DF91CF911F910895CF93DF93CDB7B4
:101F7000DEB7AB970FB6F894DEBF0FBECDBF789437
:101F800084B5826084BD84B5816084BD85B582607E
:101F900085BD85B5816085BD80916E00816080932F
:101FA0006E00109281008091810082608093810098
:101FB00080918100816080938100809180008160A8
:101FC000809380008091B10084608093B100809103
:101FD000B00081608093B000809191008260809316
:101FE0009100809191008160809391008091900098
:101FF0008160809390008091A10082608093A10015
:102000008091A10081608093A1008091A0008160F7
:102010008093A000809121018260809321018091B2
:102020002101816080932101809120018160809352
:10203000200180917A00846080937A0080917A00F8
:10204000826080937A0080917A00816080937A0028
:1020500080917A00806880937A001092C100E091AC
:10206000BC02F091BD0282E08083E091B802F09161
:10207000B9021082E091BA02F091BB0280E1808344
:102080001092C402E091C002F091C10286E0808308
:10209000E091BE02F091BF02808180618083E09177
:1020A000BE02F091BF02808188608083E091BE0211
:1020B000F091BF02808180688083E091BE02F09140
:1020C000BF0280818F7D808386E992E00E94630B4E
:1020D00082E692E00E94630B81E392E00E94630B30
:1020E0008EEF91E00E94630B61E083E20E9406059F
:1020F00061E084E20E94060561E085E20E94060537
:1021000061E082E20E94060561E081E20E9406052C
:1021100061E080E20E94060560E083E20E94D8044C
:1021200060E084E20E94D80460E085E20E94D80466
:1021300060E082E20E94D80460E081E20E94D8045C
:1021400060E080E20E94D80461E084E30E9406051A
:1021500061E083E30E94060561E082E30E940605D8
:1021600061E085E30E94060561E08AE00E940605C1
:1021700061E08DE00E94060561E08CE00E940605AA
:1021800061E08BE00E94060561E084E30E94D804D0
:1021900061E083E30E94D80461E082E30E94D804F6
:1021A00061E085E30E94D80461E08AE00E94D804DF
:1021B00061E08DE00E94D80461E08CE00E94D804C8
:1021C00061E08BE00E94D80460E971E080E090E07B
:1021D0000E947E0560E084E30E94D80460E083E30F
:1021E0000E94D80460E082E30E94D80460E085E3A6
:1021F0000E94D80460E08AE00E94D80460E08DE08C
:102200000E94D80460E08CE00E94D80460E08BE07B
:102210000E94D804B8E3CB2EB2E0DB2E00E112E03E
:10222000D801FC9062E08F2D0E9406058F2D0E9440
:10223000AF0421E0892B09F420E0F80121832283F7
:102240002383085F1F4FC016D10651F762E083E178
:102250000E9406058DEB95E0909309028093080299
:10226000809169008F7C806280936900EA9A13E014
:1022700001E080915203909153030E9465071092F0
:1022800050031092510362E370E080E090E00E94FE
:102290007E05BE01665F7F4F80915203909153038C
:1022A0000E947B09882309F47AC067E0CE010A9670
:1022B0000E944E0799898913ECCF809150038F5F5C
:1022C000809350038A85883231F008F04EC0803107
:1022D00011F08232F1F6809151038F5F80935103A8
:1022E00080914903811128C080915203909153033A
:1022F0000E941808BE01665F7F4F80915203909143
:1023000053030E94F90740E064EB809152039091DF
:1023100053030E94C50780915203909153030E947A
:102320007207F82E80915203909153030E9418086F
:10233000F11002C0009349038A85803109F1BE0182
:102340006F5F7F4FCE010A960E94E108882359F003
:102350008D819A859B3311F487FD12C08F3391F0E4
:1023600058F48F31C1F080E00EC08B3309F4B3CF45
:10237000823409F08ECFAFCF8F3579F08F3799F750
:102380008CE001C08AE090914C03981708F081CF4F
:1023900080934C037ECF89E0F6CF8BE0F4CF809121
:1023A0005003811103C0115009F063CF8AE080937C
:1023B0004C0380915203909153030E94650700E003
:1023C00080915003081708F0B6C0BE01665F7F4FCA
:1023D00080915203909153030E947B09882309F452
:1023E0008AC067E0CE010A960E944E079989891338
:1023F00082C010914C038A85803109F47CC01D3065
:1024000008F47BC01CE0BE016F5F7F4FCE010A96CF
:102410000E94E108882309F46EC01A508FE113303E
:1024200028F4E12FF0E0E35CFD4F80819D81981757
:1024300009F461C08D8380915203909153030E94EF
:102440001808BE01665F7F4F80915203909153033D
:102450000E94F90740E06EE480915203909153038B
:102460000E94C50740E06B81809152039091530315
:102470000E94C50740E06C81809152039091530304
:102480000E94C5078A85803141F040E06D818091CE
:102490005203909153030E94C5078091520390917B
:1024A000530320914F03222321F10E94180888230F
:1024B00011F1BE01665F7F4F8091520390915303EB
:1024C0000E94F9074091490368E48091520390917A
:1024D00053030E94C50780914903811113C064E131
:1024E00070E080E090E00E947E0580915203909120
:1024F00053030E9418080F5F63CF193008F083CF91
:1025000019E081CF80914A03882329F060E080910F
:102510004B030E94D80464E170E080E090E00E94E8
:102520007E0580914A03882301F361E080914B038B
:102530000E94D804DACF0E9450082F8B388F498F21
:102540005A8F6B8F82E00E949F0A0E94970A80E058
:102550000E94400B6DEE71E08EE693E00E94F6055E
:1025600081E00E94400B6BED71E08EE693E00E94EB
:10257000F60560EB74E080E090E00E947E0581EA61
:1025800091E00E94630BA3E02A2E312C0E94B1053A
:102590006B017C018091A202882309F462C0309211
:1025A000A1022092A00210929F0210929E0210920D
:1025B0003C0280919A0290919B02A0919C02B09162
:1025C0009D0246015701881A990AAA0ABB0AD50139
:1025D000C4018A3F9105A105B105D0F0C0929A02CD
:1025E000D0929B02E0929C02F0929D0280E00E94B9
:1025F000400B66EF76E08EE693E00E94F60581E000
:102600000E94400B64EE76E08EE693E00E94F605B1
:102610008091960290919702A0919802B0919902B0
:10262000A7019601281B390B4A0B5B0BDA01C90184
:1026300086399105A105B10588F0C0929602D09225
:102640009702E0929802F09299026091950281E0DF
:102650006827609395028CE00E94D8040E941D07B1
:1026600095CF8091910290919202A0919302B091A6
:102670009402B701A601481B590B6A0B7B0BDB01C7
:10268000CA01C297A105B10508F471C2C0929102B6
:10269000D0929202E0929302F092940210E11C8E8A
:1026A0001D8E1E8E1F8E812C912C5401412C512C7D
:1026B000320186E30E944205092E000CAA0BBB0BD7
:1026C000480E591E6A1E7B1E87E30E944205092E92
:1026D000000CAA0BBB0B880E991EAA1EBB1E88E31A
:1026E0000E944205092E000CAA0BBB0B2C8D3D8DC0
:1026F0004E8D5F8D280F391F4A1F5B1F2C8F3D8F1A
:102700004E8F5F8F1150A9F6C301B2010E94A41C25
:1027100020E030E040E85DE30E945B1D20E030EC0B
:102720004FE754E40E94031C20E030E040EA50E40C
:102730000E945B1D20E030E040E850E40E945B1DF9
:1027400020E030E040E85EE30E945B1D2B013C018D
:1027500020E030E040E45FE36091890270918A02FA
:1027600080918B0290918C020E945B1D9B01AC01B9
:10277000C301B2010E94921B162F78A38AA39BA3C8
:10278000862F972FAAA1BBA18093890290938A02DA
:10279000A0938B02B0938C02C501B4010E94A41CCB
:1027A00020E030E040E85DE30E945B1D20E030EC7B
:1027B0004FE754E40E94031C20E030E040EA50E47C
:1027C0000E945B1D20E030E040E850E40E945B1D69
:1027D00020E030E040E85EE30E945B1D4B015C01BD
:1027E00020E030E040E45FE3609185027091860272
:1027F00080918702909188020E945B1D9B01AC0131
:10280000C501B4010E94921B6CA37DA38EA39FA35C
:10281000CB01AEA1BFA18093850290938602A093C5
:102820008702B09388026C8D7D8D8E8D9F8D0E9466
:10283000A41C20E030E040E85DE30E945B1D20E046
:1028400030EC4FE754E40E94031C20E030E040EA03
:1028500050E40E945B1D20E030E040E850E40E941C
:102860005B1D20E030E040E85EE30E945B1D4B0111
:102870005C0120E030E040E45FE360918102709110
:10288000820280918302909184020E945B1D9B01D1
:10289000AC01C501B4010E94921B062F772E682E51
:1028A000592E862F972DA62DB52D809381029093BA
:1028B0008202A0938302B093840240903C02812C58
:1028C000912C540140FE06C0812C912CF0E7AF2ED4
:1028D000F1E4BF2E41FE0AC020E030E048EC51E4B4
:1028E000C501B4010E94921B4B015C0142FE0AC06B
:1028F00020E030E040E252E4C501B4010E94921BA6
:102900004B015C0180919E0290919F028130910564
:1029100009F4F9C68230910509F4FAC6039709F063
:10292000CEC020E030E040E450E4602F772D862DCB
:10293000952D0E94561D18160CF0C1C0202F372D62
:10294000462D552DC501B4010E94031C60937D02E4
:1029500070937E0280937F02909380020E94B10563
:1029600000917402109175022091760230917702E5
:10297000601B710B820B930B6032734081059105D4
:1029800008F4CFC00E94B105609374027093750281
:10299000809376029093770280915003882309F404
:1029A000B9C080915203909153030E946507BE0104
:1029B000665F7F4F80915203909153030E947B0981
:1029C000882309F4A7C067E0CE010A960E944E074B
:1029D000998989139FC0BE016F5F7F4FCE010A9610
:1029E0000E94E108882309F495C09A8100E010E074
:1029F000980197FF04C000E010E028EF3FEF4A8500
:102A000089814B3309F064C05D8157FF61C080FD4F
:102A100081C0882E912CB12CA12C73E0880C991CBC
:102A2000AA1CBB1C7A95D1F740EE842247E0942281
:102A3000AA24BB24892F90E0B0E0A0E0EBE0880F4F
:102A4000991FAA1FBB1FEA95D1F788299929AA299E
:102A5000BB294C015D01802A912AA22AB32A21E8D0
:102A6000821624EE92062FEFA206B2060CF452C094
:102A7000C501B4010E94A61C20E030E040E05CE308
:102A80000E945B1D4B015C0120E030E04CE552EC04
:102A90000E94561D1816F4F520E030E04AEF52E48B
:102AA000C501B4010E94FE1B87FF34C0809238022A
:102AB00090923902A0923A02B0923B022BC010923F
:102AC0007D0210927E0210927F021092800246CF09
:102AD000892E912C982C8824990C990C990C58E0EB
:102AE000859FB0011124862A972A092C000CAA0878
:102AF000BB08802A912AA22AB32A483209F05EC074
:102B0000803509F054C0953009F0A9CF8F818C3001
:102B100009F0A5CF0E9450082A8B3B8B4C8B5D8B14
:102B20006E8B8090380290903902A0903A02B0905B
:102B30003B020091A0021091A10220E030E042E8A7
:102B400052E4C501B4010E94561D87FD6BC00330DD
:102B5000110569F082E090E09093A1028093A002B9
:102B600090E080E00E94E50B80E00E945709809190
:102B7000A0029091A102892B09F090C08091A2023D
:102B800081118CC020E030E040E651E46091890280
:102B900070918A0280918B0290918C020E94561D46
:102BA00087FD53C081E090E00E94E50B72C08F3F2B
:102BB00009F055CF973009F052CFACCF403109F032
:102BC0004ECF6885662309F44ACF70E08F81DB0120
:102BD000A81BB109CD019695982F882797958795C1
:102BE0000E94CD1DCB01770FAA0BBB0B53E0880CC5
:102BF000991CAA1CBB1C5A95D1F7E0E88E22E7E08D
:102C0000AE22BB24F0E28F1A9108A108B108880D0A
:102C1000991DAA1DBB1D48015901882A992AAA2A73
:102C2000BB2A1DCF0230110509F0A1CF20E030E012
:102C300040E752E4C501B4010E94FE1B87FF2EC08D
:102C40001092A1021092A00292CF20E030E048E35F
:102C500051E4609185027091860280918702909183
:102C600088020E94561D87FD8CC082E090E00E9481
:102C7000E50B23E333E343E451E460918502709173
:102C8000860280918702909188020E94561D87FDDE
:102C900002C087E001C083E00E9457098091A20230
:102CA0008111B0C00E94B1052B013C0100E112E08E
:102CB000912CAA24A394B12C94E0892ED8018C9154
:102CC0000E94AF049C01B1E0BAA3892B09F41AA2B7
:102CD000F8018381FAA1F81749F0D80114964D92B2
:102CE0005D926D927C9217971396FC93D80114967F
:102CF0004D915D916D917C911797D301C201841B19
:102D0000950BA60BB70B88A799A7AAA7BBA791E01D
:102D1000990D9C8FD8011896B9A3A8A348A559A5C9
:102D20006AA57BA5433351056105710508F464C0AC
:102D3000D80111968C91BAA1B81709F45DC0F801B9
:102D4000B183232B09F058C08091A202811154C095
:102D500052E0951609F430C2591560F161E09616FB
:102D600009F40AC280917A0290917B028130910528
:102D7000B1F170F10297E1F110927B0210927A02A8
:102D80003BC020E030E040E251E46091810270916C
:102D9000820280918302909184020E94561D87FDD9
:102DA00003C083E090E000CF90E080E00E94E50B5C
:102DB00080E072CF73E0971609F416C284E098128F
:102DC000D1CF10927B0210927A02109279020DC03C
:102DD000B0927B02A0927A02109279020DC0A2E01A
:102DE000B0E0B0937B02A0937A021092780204C004
:102DF00030927B0220927A029C8C08A119A1F5E006
:102E00009F125CCF80919A0290919B02A0919C02AC
:102E1000B0919D0246015701881A990AAA0ABB0A75
:102E2000D501C4018C329140A105B105D8F0C09202
:102E30009A02D0929B02E0929C02F0929D020E9424
:102E4000970A80917A0290917B028130910509F472
:102E500015C308F46FC28230910509F49EC303972D
:102E600009F4EFC30E94B1050091960210919702F8
:102E700020919802309199024B015C01801A910ACD
:102E8000A20AB30A95018401043F114021053105CE
:102E900088F06093960270939702809398029093C3
:102EA000990260917C0281E0682760937C0284E350
:102EB0000E94D804A0909E02B0909F0261E051E071
:102EC000A516B10409F060E083E30E94D80461E034
:102ED00072E0A716B10409F060E082E30E94D80412
:102EE00061E083E0A816B10409F060E085E30E9488
:102EF000D80411E080913C02811101C010E0612FE3
:102F00008AE00E94D8044090890250908A02609022
:102F10008B0270908C022091850230918602409144
:102F2000870250918802C301B2010E94561D1816F3
:102F300054F401E020E030E040E651E4C301B20186
:102F40000E94561D87FD00E0602F8DE00E94D8048E
:102F50008091A0029091A10261E08230910519F068
:102F6000039721F060E08CE00E94D804AB2809F0C0
:102F700011E0612F8BE00E94D80480918D02909126
:102F80008E02A0918F02B091900246015701881ADB
:102F9000990AAA0ABB0AD501C401883E9340A1053B
:102FA000B10508F45BCBC0928D02D0928E02E09204
:102FB0008F02F092900281EB96E00E94630B6FE922
:102FC00076E08CEA92E00E94F605409189025091E9
:102FD0008A0260918B0270918C0222E030E08CEAD0
:102FE00092E00E944E0C63E976E08CEA92E00E9447
:102FF000F60540918502509186026091870270919A
:10300000880222E030E08CEA92E00E944E0C67E8F1
:1030100076E08CEA92E00E94F605409181025091A0
:103020008202609183027091840222E030E08CEA97
:1030300092E00E944E0C84E896E00E94630B68E6E2
:1030400076E08CEA92E00E94F60540917D02509174
:103050007E0260917F027091800222E030E08CEA73
:1030600092E00E944E0C6CE576E08CEA92E00E94C1
:10307000F605409138025091390260913A02709100
:103080003B0221E030E08CEA92E00E944E0C87E5A2
:1030900096E00E94630B63E476E08CEA92E00E9483
:1030A000F6058091A0029091A1026EE376E0009770
:1030B00071F067E376E08130910549F061E376E0F5
:1030C0008230910521F0039731F462E276E08CEAD8
:1030D00092E00E94F6056FE076E08CEA92E00E94B2
:1030E000F60580919E0290919F0269E076E0813022
:1030F000910559F061E076E08230910531F06CEF96
:1031000075E0039711F068EF75E08CEA92E00E9499
:10311000F6056BEE75E08CEA92E00E94F605809170
:103120003C0265EE75E080FD02C063EE75E08CEA5E
:1031300092E00E94F60567EE75E08CEA92E00E944C
:10314000F60580913C026DED75E081FD02C06BEDEE
:1031500075E08CEA92E00E94F6056FED75E08CEA6E
:1031600092E00E94F60580913C0282FFC9C289ED7F
:1031700095E00E94630B72CA80917A0290917B0263
:103180008130910559F480917902882321F0815092
:103190008093790231CE809279022ECE029709F087
:1031A000BCC280917802882321F0815080937802FC
:1031B00023CE8092780220CE80917A0290917B0279
:1031C0008130910539F480917902843008F004CE81
:1031D0008F5FDECF029709F0A0C280917802843021
:1031E00008F003CE8F5FE2CF80917A0290917B024C
:1031F000009711F581E090E02091A0023091A102AA
:10320000232B11F090E080E09093A1028093A00224
:1032100060E974E08CEA92E00E94F6058091A002D9
:103220009091A102892B29F48BE894E00E94630B12
:10323000E3CD84E894E0FACF8130910509F040C0F5
:103240008091790281110BC0B092A102A092A002DC
:1032500081E090E00E94E50B85E594E0E7CF8130C6
:1032600059F4B092A102A092A00282E090E00E94E4
:10327000E50B87E294E0DACF823059F4B092A102F4
:10328000A092A00283E090E00E94E50B84EF93E01F
:10329000CDCF833039F41092A1021092A00286ECB7
:1032A00093E0C4CF843009F038C2B092A102A0925A
:1032B000A00290E080E00E94E50B85E993E0B6CFA4
:1032C000029709F02AC2B092A102A092A0028091B6
:1032D0007802811109C080913C02B1E08B270E94E5
:1032E000570986E693E0A2CF813049F480913C02F1
:1032F000E2E08E270E94570989E393E097CF82305E
:1033000041F480913C0288250E94570986E093E0B1
:103310008DCF833031F487E00E94570985EE92E02B
:1033200085CF843009F0F9C180E00E94570989EC0B
:1033300092E07CCF80E00E94400B62ED75E08EE66B
:1033400093E00E94F60580919E0290919F026BECA3
:1033500075E08130910559F064EC75E0823091059B
:1033600031F06DEB75E0039711F066EB75E08EE6DA
:1033700093E00E94F6058091A0029091A1026DEA6F
:1033800075E0892B11F067EA75E08EE693E00E9404
:10339000F60581E00E94400B63EB75E08EE693E05A
:1033A0000E94F60580913C0261EA75E080FD02C052
:1033B0006FE975E08EE693E00E94F60563EA75E03A
:1033C0008EE693E00E94F60580913C0269E975E083
:1033D00081FD02C067E975E08EE693E00E94F60584
:1033E0006BE975E08EE693E00E94F60580913C0261
:1033F00063E975E082FD02C061E975E08EE693E065
:103400000E94F60565E975E08EE693E00E94F605F8
:1034100080919E0290919F028130910531F182301E
:103420009105D1F040E050E0BA01039741F440919A
:10343000810250918202609183027091840221E0A6
:1034400030E08EE693E00E944E0C6FE875E08EE669
:1034500093E00E94F60506CD4091850250918602C8
:103460006091870270918802EACF40918902509161
:103470008A0260918B0270918C02E1CF80E00E9401
:10348000400B60E875E08EE693E00E94F60581E06F
:103490000E94400B6DE775E08EE693E00E94F60512
:1034A00080917902823009F451C0E0F48823B9F1A7
:1034B000813009F0D7CC63E675E08EE693E00E9498
:1034C000F60580919E0290919F02029709F0CACC66
:1034D0008091A0029091A1026DE575E0019709F03D
:1034E000C1CCB5CF833009F448C0843009F0BACCE0
:1034F00063E375E08EE693E00E94F60580919E02FC
:1035000090919F02892B09F0ADCC8091A0029091FF
:10351000A1026DE275E0019709F0A4CC98CF63E7B2
:1035200075E08EE693E00E94F60580919E029091F0
:103530009F02019709F096CC8091A0029091A10280
:103540006DE675E0019709F08DCC81CF63E575E0FC
:103550008EE693E00E94F60580919E0290919F0274
:10356000039709F07FCC8091A0029091A1026DE4B5
:1035700075E0019709F076CC6ACF63E475E08EE6DA
:1035800093E00E94F6058091A0029091A1026DE364
:1035900075E0892B09F066CC5ACF80E00E94400B81
:1035A0006FE175E08EE693E00E94F60581E00E94EF
:1035B000400B6CE175E08EE693E00E94F605809189
:1035C0007802823061F1A0F48823D1F0813009F0D3
:1035D00049CC6CEF74E08EE693E00E94F605809192
:1035E0003C0268EF74E081FD32CF64EF74E02FCFCE
:1035F000833021F163EC74E0843009F428CF32CCBD
:1036000060E175E08EE693E00E94F60580913C0251
:103610006CE075E080FD1BCF68E075E018CF68EEC8
:1036200074E08EE693E00E94F60580913C0264EE21
:1036300074E082FD0CCF60EE74E009CF62ED74E0BF
:1036400006CF80E00E94400B6FEB74E08EE693E0C3
:103650000E94F6054091890250918A0260918B0286
:1036600070918C0221E030E08EE693E00E944E0CD7
:1036700069EB74E08EE693E00E94F60540918502C6
:1036800050918602609187027091880221E030E0BB
:103690008EE693E00E944E0C67EB74E08EE693E0BA
:1036A0000E94F60581E00E94400B63EB74E08EE619
:1036B00093E00E94F6054091810250918202609150
:1036C00083027091840221E030E08EE693E00E9454
:1036D0004E0C6EEA74E08EE693E00E94F60540918F
:1036E00038025091390260913A0270913B0221E018
:1036F00030E08EE693E00E944E0C6CEA74E0A7CEB8
:1037000087ED95E036CD012F78A06AA05BA009C9AE
:103710000CA17DA06EA05FA004C99C8C08A119A17A
:10372000CDCA5058BB27AA270E94A91B0C941C1D68
:103730000E940E1D38F00E94151D20F039F49F3FA5
:1037400019F426F40C940B1D0EF4E095E7FB0C9491
:10375000051DE92F0E942D1D58F3BA176207730744
:103760008407950720F079F4A6F50C944F1D0EF40C
:10377000E0950B2EBA2FA02D0B01B90190010C0181
:10378000CA01A0011124FF27591B99F0593F50F499
:10379000503E68F11A16F040A22F232F342F4427F1
:1037A000585FF3CF469537952795A795F0405395E9
:1037B000C9F77EF41F16BA0B620B730B840BBAF0B9
:1037C0009150A1F0FF0FBB1F661F771F881FC2F724
:1037D0000EC0BA0F621F731F841F48F48795779538
:1037E0006795B795F7959E3F08F0B0CF9395880FF2
:1037F00008F09927EE0F9795879508950E94E11C90
:1038000008F481E008950E94171C0C941C1D0E946E
:10381000151D58F00E940E1D40F029F45F3F29F05D
:103820000C94051D51110C94501D0C940B1D0E94FD
:103830002D1D68F39923B1F3552391F3951B550B77
:10384000BB27AA2762177307840738F09F5F5F4F73
:10385000220F331F441FAA1FA9F335D00E2E3AF0B2
:10386000E0E832D091505040E695001CCAF72BD0CA
:10387000FE2F29D0660F771F881FBB1F261737071B
:103880004807AB07B0E809F0BB0B802DBF01FF274D
:1038900093585F4F3AF09E3F510578F00C94051D08
:1038A0000C94501D5F3FE4F3983ED4F386957795D2
:1038B0006795B795F7959F5FC9F7880F911D969506
:1038C000879597F90895E1E0660F771F881FBB1F62
:1038D000621773078407BA0720F0621B730B840B0F
:1038E000BA0BEE1F88F7E09508950E94351D88F009
:1038F0009F5798F0B92F9927B751B0F0E1F0660FB4
:10390000771F881F991F1AF0BA95C9F714C0B130F4
:1039100091F00E944F1DB1E008950C944F1D672F48
:10392000782F8827B85F39F0B93FCCF38695779523
:103930006795B395D9F73EF490958095709561950C
:103940007F4F8F4F9F4F0895E89409C097FB3EF437
:1039500090958095709561957F4F8F4F9F4F9923DC
:10396000A9F0F92F96E9BB279395F695879577955A
:103970006795B795F111F8CFFAF4BB0F11F460FF1A
:103980001BC06F5F7F4F8F4F9F4F16C0882311F072
:1039900096E911C0772321F09EE8872F762F05C086
:1039A000662371F096E8862F70E060E02AF09A9521
:1039B000660F771F881FDAF7880F9695879597F916
:1039C0000895990F0008550FAA0BE0E8FEEF1616B0
:1039D0001706E807F907C0F012161306E407F50703
:1039E00098F0621B730B840B950B39F40A2661F077
:1039F000232B242B252B21F408950A2609F4A1401A
:103A0000A6958FEF811D811D089597F99F6780E826
:103A100070E060E008959FEF80EC089500240A9420
:103A20001616170618060906089500240A94121699
:103A30001306140605060895092E0394000C11F4CC
:103A4000882352F0BB0F40F4BF2B11F460FF04C079
:103A50006F5F7F4F8F4F9F4F089557FD9058440FD2
:103A6000551F59F05F3F71F04795880F97FB991FDD
:103A700061F09F3F79F0879508951216130614069A
:103A8000551FF2CF4695F1DF08C016161706180627
:103A9000991FF1CF86957105610508940895E89402
:103AA000BB2766277727CB0197F908950E94E11C71
:103AB00008F48FEF08950E946E1D0C941C1D0E9447
:103AC0000E1D38F00E94151D20F0952311F00C9466
:103AD000051D0C940B1D11240C94501D0E942D1DCE
:103AE00070F3959FC1F3950F50E0551F629FF00151
:103AF000729FBB27F00DB11D639FAA27F00DB11D6A
:103B0000AA1F649F6627B00DA11D661F829F2227F2
:103B1000B00DA11D621F739FB00DA11D621F839F79
:103B2000A00D611D221F749F3327A00D611D231F4F
:103B3000849F600D211D822F762F6A2F11249F579D
:103B400050409AF0F1F088234AF0EE0FFF1FBB1FA0
:103B5000661F771F881F91505040A9F79E3F51055F
:103B600080F00C94051D0C94501D5F3FE4F3983ECB
:103B7000D4F3869577956795B795F795E7959F5F09
:103B8000C1F7FE2B880F911D9695879597F908959B
:103B90000E94E11C880B990B089597FB072E16F4E1
:103BA000009407D077FD09D00E940B1E07FC05D0BA
:103BB0003EF4909581959F4F0895709561957F4F44
:103BC0000895A1E21A2EAA1BBB1BFD010DC0AA1F5E
:103BD000BB1FEE1FFF1FA217B307E407F50720F076
:103BE000A21BB30BE40BF50B661F771F881F991FF1
:103BF0001A9469F760957095809590959B01AC013A
:103C0000BD01CF010895EE0FFF1F881F8BBF0790E6
:103C1000F691E02D1994AA1BBB1B51E107C0AA1F06
:103C2000BB1FA617B70710F0A61BB70B881F991F5D
:103C30005A95A9F780959095BC01CD010895F89407
:103C4000FFCFF505F505F505F505F505F505F505D0
:103C5000F5051C010101000000001D01010100002B
:103C600000002D010101000000002C0101010000F5
:103C700000002A010101000000000000C841073FC8
:103C80005F7F5E00BC00770100000000B0061A06EE
:103C90004706FD06780656066A06000000004E0B31
:103CA0001A06540953090D0A006E616E00696E66AA
:063CB000006F76660000C3
:020000040003F7
:10E000000D9489F10D94B2F10D94B2F10D94B2F129
:10E010000D94B2F10D94B2F10D94B2F10D94B2F1F0
:10E020000D94B2F10D94B2F10D94B2F10D94B2F1E0
:10E030000D94B2F10D94B2F10D94B2F10D94B2F1D0
:10E040000D94B2F10D94B2F10D94B2F10D94B2F1C0
:10E050000D94B2F10D94B2F10D94B2F10D94B2F1B0
:10E060000D94B2F10D94B2F10D94B2F10D94B2F1A0
:10E070000D94B2F10D94B2F10D94B2F10D94B2F190
:10E080000D94B2F10D94B2F10D94B2F10D94B2F180
:10E090000D94B2F10D94B2F10D94B2F10D94B2F170
:10E0A0000D94B2F10D94B2F10D94B2F10D94B2F160
:10E0B0000D94B2F10D94B2F10D94B2F10D94B2F150
:10E0C0000D94B2F10D94B2F10D94B2F10D94B2F140
:10E0D0000D94B2F10D94B2F10D94B2F10D94B2F130
:10E0E0000D94B2F141546D656761323536300041AF
:10E0F000726475696E6F206578706C6F72657220DE
:10E1000073746B3530305632206279204D4C530099
:10E11000426F6F746C6F616465723E004875683F52
:10E1200000436F6D70696C6564206F6E203D200048
:10E130004350552054797065202020203D20005FF9
:10E140005F4156525F415243485F5F3D2000415658
:10E1500052204C696243205665723D20004743437C
:10E160002056657273696F6E203D20004350552024
:10E1700049442020202020203D20004C6F7720663D
:10E18000757365202020203D20004869676820665F
:10E190007573652020203D200045787420667573D6
:10E1A00065202020203D20004C6F636B2066757336
:10E1B000652020203D20004D617220203720323024
:10E1C000313300312E362E3800342E332E350056A2
:10E1D00023202020414444522020206F7020636F70
:10E1E00064652020202020696E73747275637469E1
:10E1F0006F6E2061646472202020496E74657272B3
:10E20000757074006E6F20766563746F7200726A49
:10E210006D702020006A6D70200057686174207056
:10E220006F72743A00506F7274206E6F7420737541
:10E2300070706F72746564004D7573742062652030
:10E2400061206C6574746572002000577269747483
:10E25000696E672045450052656164696E672045B7
:10E26000450045452065727220636E743D00504F35
:10E27000525400303D5A65726F2061646472003FF1
:10E280003D43505520737461747300403D454550C3
:10E29000524F4D207465737400423D426C696E6B41
:10E2A000204C454400453D44756D70204545505215
:10E2B0004F4D00463D44756D7020464C415348001B
:10E2C000483D48656C70004C3D4C69737420492F83
:10E2D0004F20506F72747300513D51756974005234
:10E2E0003D44756D702052414D00563D73686F7707
:10E2F00020696E7465727275707420566563746FF0
:10E30000727300593D506F727420626C696E6B00BD
:10E310002A0011241FBECFEFD1E2DEBFCDBF01E046
:10E320000CBF12E0A0E0B2E0EEE1FDEF03E00BBFB6
:10E3300002C007900D92A030B107D9F712E0A0E01B
:10E34000B2E001C01D92AE30B107E1F70F9460F367
:10E350000D948DFE01E20EBF0FEF0DBF11241FBE05
:10E360000D9460F30D9400F020E030E040ED57E0B4
:10E3700005C0FA013197F1F72F5F3F4F2817390792
:10E38000C0F308959C01260F311DC901A0E0B0E043
:10E390002F5F3F4FABBFFC018791882361F08093D3
:10E3A000C6008091C00086FFFCCF8091C0008064D1
:10E3B0008093C000EACF08958DE08093C6008091DD
:10E3C000C00086FFFCCF8091C00080648093C000B5
:10E3D0008AE08093C6008091C00086FFFCCF8091C8
:10E3E000C00080648093C00008950F94C2F10F9420
:10E3F000DCF10895FC019081992359F09093C600B7
:10E400008091C00086FFFCCF8091C0008064809323
:10E41000C0003196992379F70895282F982F929567
:10E420009F70892F805D8A3308F0895F8093C600D2
:10E430008091C00086FFFCCF8091C00080648093F3
:10E44000C000822F8F70982F905D9A3308F0995FEB
:10E450009093C6008091C00086FFFCCF8091C000E1
:10E4600080648093C00008959C01FB01853691056E
:10E470001CF46330710594F0C90164E670E00F94F8
:10E480002EFE605D7F4F6093C6008091C00086FFC6
:10E49000FCCF8091C00080648093C0002B30310598
:10E4A00014F43297B4F0C90164E670E00F942EFEC4
:10E4B0006AE070E00F942EFE605D7F4F6093C600AF
:10E4C0008091C00086FFFCCF8091C0008064809363
:10E4D000C000C9016AE070E00F942EFEC0968093E0
:10E4E000C6008091C00086FFFCCF8091C000806490
:10E4F0008093C00008951F93182F8EE692EE60E07F
:10E500000F94C2F11093C6008091C00086FFFCCF2B
:10E510008091C00080648093C0000F94DCF11F9153
:10E5200008952F923F924F925F926F927F928F92B7
:10E530009F92AF92BF92CF92DF92EF92FF920F9392
:10E540001F93DF93CF93CDB7DEB762970FB6F894E2
:10E55000DEBF0FBECDBF382E622ECA01DB015C01CB
:10E560006D01772420E2222E2E010894411C511CBB
:10E570008BC081E0A81680E0B80681E0C80680E084
:10E58000D80628F0C601AA27BB270F940DF2BB2797
:10E59000AD2D9C2D8B2D0F940DF28A2D0F940DF225
:10E5A0002092C6008091C00086FFFCCF8091C00001
:10E5B00080648093C0009DE29093C6008091C0006B
:10E5C00086FFFCCF8091C00080648093C0002092C1
:10E5D000C6008091C00086FFFCCF8091C00080649F
:10E5E0008093C00019828601750188249924A1E0D6
:10E5F0003A1651F03A1620F0B2E03B1661F409C029
:10E600000BBFF701779007C0C7010F9477FE782EF4
:10E6100002C0F7017080872D0F940DF22092C60082
:10E620008091C00086FFFCCF8091C0008064809301
:10E63000C000872D8052F401EF70F0708F3520F408
:10E64000E40DF51D708204C0E40DF51D8EE280839B
:10E650000894E11CF11C011D111D0894811C911CE2
:10E6600090E18916910409F0C2CF80E190E0A0E02A
:10E67000B0E0A80EB91ECA1EDB1E198AC2010F9493
:10E68000FAF10F94DCF16A94662009F072CF629679
:10E690000FB6F894DEBF0FBECDBFCF91DF911F91B3
:10E6A0000F91FF90EF90DF90CF90BF90AF909F9031
:10E6B0008F907F906F905F904F903F902F90089534
:10E6C0002F923F924F925F926F927F928F929F9282
:10E6D000AF92BF92CF92DF92EF92FF920F931F9370
:10E6E000DF93CF93CDB7DEB7CD53D1400FB6F894BB
:10E6F000DEBF0FBECDBF01E20EBF0FEF0DBF94B75F
:10E70000F894A89514BE80916000886180936000A1
:10E7100010926000789493FF05C0E0910002F091A0
:10E7200001021995279A2F9A8091C00082608093E8
:10E73000C00080E18093C40088E18093C1000000A4
:10E74000EE24FF24870144E0A42EB12CCC24DD2448
:10E7500024C0C5010197F1F70894E11CF11C011DCB
:10E76000111D21E2E2162EE4F20620E0020720E06D
:10E77000120718F031E0C32ED12CC801B70127ECE5
:10E780003BE140E050E00F9441FE611571058105C9
:10E79000910519F485B1805885B98091C00087FD35
:10E7A00003C0C114D104A9F2A6014F5F5F4FC25E3E
:10E7B000DE4F59834883CE51D140C25EDE4F8881FF
:10E7C0009981CE51D140019711F00D9410FEC05D9A
:10E7D000DE4F19821882C053D14060E0C15DDE4F28
:10E7E0001882CF52D14088249924C35DDE4F19820C
:10E7F0001882CD52D140C05EDE4F188219821A8233
:10E800001B82C052D140CE5CDE4F188219821A8220
:10E810001B82C253D140EE24FF2487010BBFF701B6
:10E8200007911691C45CDE4F19830883CC53D14005
:10E830000D940BFEC25EDE4F28813981CE51D1404E
:10E840002130310509F52091C600C25EDE4F1982E4
:10E850001882CE51D14022C02F5F3F4F4F4F5F4FA4
:10E86000213082E138078AE7480780E0580780F0C6
:10E87000C45CDE4FE881F981CC53D140EF5FFF4F9C
:10E8800019F0EE27FF27099420E030E040E050E047
:10E890008091C00087FFE0CF2091C600C35DDE4FAE
:10E8A00048815981CD52D1404F5F5F4FC35DDE4FEC
:10E8B00059834883CD52D140213209F063C64A3092
:10E8C000510508F05FC60894811C911C53E0851621
:10E8D000910409F059C600E010E018C081E280936D
:10E8E000C6008091C00086FFFCCF8091C00080648C
:10E8F0008093C0002F5F3F4F2931310579F70F9486
:10E90000DCF10F5F1F4F0530110519F020E030E0FA
:10E91000E5CF10920A0210920B0210920C02109294
:10E920000D02109206021092070210920802109235
:10E930000902109202021092030210920402109235
:10E9400005028FEE90EE60E00F94F5F180E191EE1C
:10E9500060E00F94C2F18091C00087FFFCCF9091DE
:10E96000C600903608F09F759032B8F09093C600BC
:10E970008091C00086FFFCCF8091C00080648093AE
:10E98000C000A0E2A093C6008091C00086FFFCCF2B
:10E990008091C00080648093C000983409F4D7C18E
:10E9A0009934B8F4923409F459C1933458F490333B
:10E9B00019F1903308F4E3C59F33A1F1903409F0C5
:10E9C000DEC5BDC0953409F470C1963409F0D7C5D1
:10E9D00098C1923509F42BC2933538F49C3409F46C
:10E9E000F5C1913509F0CBC518C2963509F445C279
:10E9F000993509F0C4C567C483E792EE62E00F94CD
:10EA0000F5F110920602109207021092080210927D
:10EA1000090210920A0210920B0210920C0210923C
:10EA20000D0213C18FE792EE62E00F94F5F18FEEC5
:10EA300090EE60E00F94F5F181E291EE60E00F94CA
:10EA4000C2F187EB91EE60E00F94F5F180E391EE77
:10EA500060E00F94C2F184EE90EE60E00F94F5F167
:10EA60008FE391EE60E00F94C2F186E090E061E008
:10EA700070E00F9434F20F94DCF18DE591EE60E0DC
:10EA80000F94C2F189EC91EE60E00F94F5F18EE401
:10EA900091EE60E00F94C2F183EC91EE60E00F9490
:10EAA000F5F18CE691EE60E00F94C2F18EE10F94E7
:10EAB0000DF288E90F940DF281E00F940DF20F949E
:10EAC000DCF18BE791EE60E00F94C2F119E0E0E039
:10EAD000F0E010935700E4918E2F0F940DF20F94F5
:10EAE000DCF18AE891EE60E00F94C2F1E3E0F0E03F
:10EAF00010935700E4918E2F0F940DF20F94DCF1D8
:10EB000089E991EE60E00F94C2F1E2E0F0E0109349
:10EB10005700E4918E2F0F940DF20F94DCF188EAE8
:10EB200091EE60E00F94C2F1E1E0F0E01093570045
:10EB30001491812F0F940DF20F94DCF107CF8BE825
:10EB400092EE62E00F94F5F18BE492EE60E00F94A8
:10EB5000F5F10F94DCF100E010E019C0C8016F2D51
:10EB60000F947FFEFF2031F489E492EE60E00F9471
:10EB7000C2F10BC0F092C6008091C00086FFFCCFAE
:10EB80008091C00080648093C0000F5F1F4FC80158
:10EB900081519F41A0E0B0E0ABBFFC01F790BAE229
:10EBA000FB1621F0E2E000301E07C1F60F94DCF105
:10EBB0000F94DCF187E592EE60E00F94F5F10F948D
:10EBC000DCF1CC24DD2400E010E01EC0C8010F946D
:10EBD00077FEF82E882331F489E492EE60E00F94FA
:10EBE000C2F10BC08093C6008091C00086FFFCCFAD
:10EBF0008091C00080648093C000FE1419F00894D6
:10EC0000C11CD11C0F5F1F4FC80181519F41A0E063
:10EC1000B0E0ABBFFC01E790FAE2EF1621F022E092
:10EC20000030120799F60F94DCF10F94DCF182E6C4
:10EC300092EE60E00F94C2F1C60161E070E00F94C3
:10EC400034F20F94DCF10F94DCF110920202109276
:10EC50000302109204021092050278CE89E992EE26
:10EC600062E00F94F5F1279A2F9A16C02F9880E052
:10EC700090E0E0EDF7E03197F1F7019684369105E9
:10EC8000C1F72F9A80E090E0E0EDF7E03197F1F7DF
:10EC9000019684369105C1F78091C00087FFE6CFC9
:10ECA0008091C00087FFFCCF64C485EA92EE62E0E9
:10ECB0000F94F5F140910202509103026091040219
:10ECC0007091050281E020E10F9491F2809102029F
:10ECD00090910302A0910402B091050280509F4FD1
:10ECE000AF4FBF4F8093020290930302A0930402A0
:10ECF000B093050280509041A040B04008F426CE69
:10ED0000A4CF83EB92EE62E00F94F5F140910602FE
:10ED100050910702609108027091090280E020E1A1
:10ED20000F9491F28091060290910702A09108023F
:10ED3000B091090280509F4FAF4FBF4F80930602A2
:10ED400090930702A0930802B0930902FFCD80ECD4
:10ED500092EE62E00F94F5F183E792EE60E00F949B
:10ED6000F5F18FE792EE60E00F94F5F18BE892EE0B
:10ED700060E00F94F5F189E992EE60E00F94F5F10F
:10ED800085EA92EE60E00F94F5F183EB92EE60E09D
:10ED90000F94F5F180EC92EE60E00F94F5F187ECC2
:10EDA00092EE60E00F94F5F188ED92EE60E00F9442
:10EDB000F5F18FED92EE60E00F94F5F18AEE92EEB0
:10EDC00060E00F94F5F183E093EEBDCD87EC92EE19
:10EDD00062E00F94F5F181E40F947BF282E40F94EA
:10EDE0007BF283E40F947BF284E40F947BF285E45E
:10EDF0000F947BF286E40F947BF287E40F947BF20E
:10EE000088E40F947BF28AE40F947BF28BE40F94F6
:10EE10007BF28CE40F947BF299CD88ED92EE62E068
:10EE20000F94F5F1772473948824992409C48FED05
:10EE300092EE62E00F94F5F140910A0250910B02BC
:10EE400060910C0270910D0282E020E10F9491F22A
:10EE500080910A0290910B02A0910C02B0910D02D8
:10EE600080509F4FAF4FBF4F80930A0290930B0289
:10EE7000A0930C02B0930D0269CD8AEE92EE62E08F
:10EE80000F94F5F184EE90EE60E00F94F5F18FECC5
:10EE900091EE60E00F94F5F1662477244301CC5D98
:10EEA000DE4F19821882C452D140D401C301B695F5
:10EEB000A79597958795CA5DDE4F88839983AA8326
:10EEC000BB83C652D140CC5DDE4FA881B981C4520C
:10EED000D1401196CC5DDE4FB983A883C452D14096
:10EEE000CD0162E070E00F9434F2B0E2B093C6005E
:10EEF0008091C00086FFFCCF8091C0008064809329
:10EF0000C000EDE2E093C6008091C00086FFFCCF18
:10EF10008091C00080648093C000F0E2F093C6004E
:10EF20008091C00086FFFCCF8091C00080648093F8
:10EF3000C000CA5DDE4FE880F9800A811B81C6529D
:10EF4000D140BB27A12F902F8F2D0F940DF2CA5DBA
:10EF5000DE4F8881C652D1400F940DF2B0E2FB2EF5
:10EF6000F092C6008091C00086FFFCCF8091C00067
:10EF700080648093C0000DE30093C6008091C000C0
:10EF800086FFFCCF8091C00080648093C00010E2B7
:10EF90001093C6008091C00086FFFCCF8091C00016
:10EFA00080648093C0008BBEF3012791C65DDE4F65
:10EFB0002883CA52D140A22EBB24CC24DD2408943D
:10EFC000611C711C811C911C8BBEF3018791282E42
:10EFD0003324442455240894611C711C811C911C09
:10EFE0008BBEF3013791C55DDE4F3883CB52D140E4
:10EFF0000894611C711C811C911C8BBEF30147910C
:10F00000C45DDE4F4883CC52D140ADEFEA2EAFEF66
:10F01000FA2EAFEF0A2FAFEF1A2F6E0C7F1C801E57
:10F02000911E142D032DF22CEE24EA0CFB1C0C1D5A
:10F030001D1D0F940DF220E22093C6008091C000A8
:10F0400086FFFCCF8091C00080648093C000C65DC5
:10F05000DE4F8881CA52D1400F940DF230E23093D6
:10F06000C6008091C00086FFFCCF8091C000806404
:10F070008093C000C45DDE4F8881CC52D1400F9494
:10F080000DF240E24093C6008091C00086FFFCCFA5
:10F090008091C00080648093C000C55DDE4F888190
:10F0A000CB52D1400F940DF250E25093C6008091A4
:10F0B000C00086FFFCCF8091C00080648093C000B8
:10F0C0008FEFE8168FEFF80680E0080780E018075A
:10F0D00031F484E092EE60E00F94C2F1DFC0D80119
:10F0E000C7018070907CA070B0708050904CA040A0
:10F0F000B040D1F52FEF3FE340E050E0E222F322B1
:10F1000004231523CA5DDE4FA880B980CA80DB8046
:10F11000C652D140AE0CBF1CC01ED11EAA0CBB1CD7
:10F12000CC1CDD1C8EE092EE60E00F94C2F1BB2798
:10F13000A12F902F8F2D0F940DF28E2D0F940DF285
:10F1400030E23093C6008091C00086FFFCCF8091F2
:10F15000C00080648093C0004EE34093C60080915D
:10F16000C00086FFFCCF87C08EE09EEFA0E0B0E03D
:10F17000E822F9220A231B239CE0E91694E9F90608
:10F1800090E0090790E0190709F088C0C45DDE4FE0
:10F19000A881CC52D140EA2EFF2400E010E0102FCD
:10F1A0000F2DFE2CEE24C55DDE4FB881CB52D14031
:10F1B000EB0EF11C011D111DD601C501817090706F
:10F1C000A070B070DC0199278827E80EF91E0A1F8D
:10F1D0001B1F20EF30E040E050E0A222B322C42207
:10F1E000D52241E1AA0CBB1CCC1CDD1C4A95D1F7F1
:10F1F000EA0CFB1C0C1D1D1D81E090E0A0E0B0E0BE
:10F20000282239224A225B2235E1220C331C441C7D
:10F21000551C3A95D1F7E20CF31C041D151D57013E
:10F220006801AA0CBB1CCC1CDD1C85E192EE60E0E1
:10F230000F94C2F1C801AA27BB270F940DF2BB2778
:10F24000A12F902F8F2D0F940DF28E2D0F940DF274
:10F2500090E29093C6008091C00086FFFCCF809121
:10F26000C00080648093C000AEE3A093C60080918C
:10F27000C00086FFFCCF8091C00080648093C000F6
:10F28000C601AA27BB270F940DF2BB27AD2D9C2DDD
:10F290008B2D0F940DF28A2D0F940DF20F94DCF14B
:10F2A000CC5DDE4FE881F981C452D140F99709F471
:10F2B0004DCBF4E0EF2EF12C012D112D6E0C7F1CA7
:10F2C000801E911EF2CD83E093EE62E00F94F5F183
:10F2D0008AE192EE60E00F94C2F18091C00087FF56
:10F2E000FCCF1091C6001F751093C6008091C0001E
:10F2F00086FFFCCF8091C00080648093C0000F9493
:10F30000DCF1812F81548A3108F036C1163409F4BA
:10F3100095C0173490F4133409F44EC0143430F40B
:10F320001134F1F0123409F01DC130C0143409F465
:10F3300059C0153409F016C16BC01A3409F4C4C0A1
:10F340001B3438F4173409F48FC0183409F00AC19B
:10F35000A1C01B3409F4D2C01C3409F003C1E8C0B9
:10F360008FEF81B90DC082B1809582B980E090E0C5
:10F37000E0EDF7E03197F1F70196883C9105C1F790
:10F380008091C00087FFEFCF12B8EFC08FEF84B934
:10F390000DC085B1809585B980E090E0E0EDF7E0A3
:10F3A0003197F1F70196883C9105C1F78091C00033
:10F3B00087FFEFCF15B8D9C08FEF87B90DC088B1DF
:10F3C000809588B980E090E0E0EDF7E03197F1F7C3
:10F3D0000196883C9105C1F78091C00087FFEFCF6F
:10F3E00018B8C3C08FEF8AB90DC08BB180958BB9A7
:10F3F00080E090E0E0EDF7E03197F1F70196883C8E
:10F400009105C1F78091C00087FFEFCF1BB8ADC059
:10F410008FEF8DB90DC08EB180958EB980E090E0F0
:10F42000E0EDF7E03197F1F70196883C9105C1F7DF
:10F430008091C00087FFEFCF1EB897C08FEF80BBD1
:10F440000DC081B3809581BB80E090E0E0EDF7E0F6
:10F450003197F1F70196883C9105C1F78091C00082
:10F4600087FFEFCF11BA81C08FEF83BB0DC084B38C
:10F47000809584BB80E090E0E0EDF7E03197F1F714
:10F480000196883C9105C1F78091C00087FFEFCFBE
:10F4900014BA6BC08FEF809301010FC080910201FD
:10F4A00080958093020180E090E0E0EDF7E03197F5
:10F4B000F1F70196883C9105C1F78091C00087FF64
:10F4C000EDCF1092020151C08FEF809304010FC065
:10F4D0008091050180958093050180E090E0E0ED4A
:10F4E000F7E03197F1F70196883C9105C1F78091DB
:10F4F000C00087FFEDCF1092050137C08FEF8093DA
:10F5000007010FC08091080180958093080180E079
:10F5100090E0E0EDF7E03197F1F70196883C910536
:10F52000C1F78091C00087FFEDCF109208011DC088
:10F530008FEF80930A010FC080910B01809580931B
:10F540000B0180E090E0E0EDF7E03197F1F70196F4
:10F55000883C9105C1F78091C00087FFEDCF1092E4
:10F560000B0103C085E292EEEEC98091C00087FFD7
:10F57000FCCF8091C600EAC988E392EEE4C98CE131
:10F5800091EEE1C988249924933011F1943028F444
:10F59000913089F09230B8F408C0953061F195301F
:10F5A000F0F0963009F048C043C02B3109F042C951
:10F5B00091E06BE13FC96227C15DDE4F2883CF52E6
:10F5C000D14092E037C9B22FA0E0622793E032C960
:10F5D000822F90E0A82BB92B622794E02BC92E3004
:10F5E00009F039C3622795E0C05DDE4F19821882A9
:10F5F000C053D1401FC9E1E0F0E0EC0FFD1FC05D3A
:10F60000DE4F08811981C053D140E00FF11F2083E4
:10F610000F5F1F4FC05DDE4F19830883C053D14079
:10F6200062270A171B0709F005C9D80196E002C92D
:10F63000261709F010C303C0973009F0FBC87724E0
:10F640009981933109F412C19431C8F4963009F4C8
:10F65000D8C0973050F4923009F406C1933009F4C1
:10F660006DC0913009F059C253C0913109F477C08F
:10F67000923108F0BBC0903109F04FC2F5C098310B
:10F6800009F487C0993150F4953109F4EFC09531F0
:10F6900008F4C6C1963109F040C2C2C19A3109F4DA
:10F6A0006CC09A3108F491C09B3109F45BC09D3164
:10F6B00009F033C29D81903359F48F81882311F46E
:10F6C0009EE11CC0813011F091E018C098E916C08D
:10F6D000892F807591F0903539F4E0E0F0E089E011
:10F6E0008093570094910AC0983539F4E3E0F0E034
:10F6F00089E080935700949101C090E01A821B82A8
:10F700008D818C831D829E831F8227E030E009C299
:10F710001A8288E08B8381E48C8386E58D8382E581
:10F720008E8389E48F8383E5888780E589878FE5E9
:10F730008A8782E38B872BE030E0F3C18A818139AD
:10F7400041F0823941F0803911F48FE005C080E04A
:10F7500003C082E001C08AE01A828B8344C0772410
:10F76000739482C08D81882311F48EE12CC0813086
:10F7700011F081E028C088E926C01A82E1E0F0E0BB
:10F7800089E08093570084918B831C8224E030E0D1
:10F79000C8C18B81803589F48C81883039F4E2E0EE
:10F7A000F0E089E08093570084910DC0E0E0F0E044
:10F7B00089E080935700849106C0E3E0F0E089E09F
:10F7C0008093570084911A82DFCF8D81836C99E0FA
:10F7D000E1E0F0E0082E90935700E89507B600FCB2
:10F7E000FDCF1A821B8223E030E09BC180EC8A832C
:10F7F000CE5CDE4F188219821A821B82C253D1401E
:10F800008EC18A8190E0A0E0B0E0582F44273327D2
:10F8100022278B8190E0A0E0B0E0DC0199278827C7
:10F82000282B392B4A2B5B2B8D8190E0A0E0B0E098
:10F83000282B392B4A2B5B2B8C8190E0A0E0B0E089
:10F84000BA2FA92F982F8827282B392B4A2B5B2BCF
:10F85000220F331F441F551FC05EDE4F288339839C
:10F860004A835B83C052D1401A8259C13A81C95C34
:10F87000DE4F3883C753D140CA5CDE4F1882C6536F
:10F88000D1408B81C82EDD24CA5CDE4F488159816E
:10F89000C653D140C42AD52A933109F082C0CE5C28
:10F8A000DE4F88819981AA81BB81C253D1408050AB
:10F8B000904CA340B04030F583E0CE5CDE4FE88052
:10F8C000F9800A811B81C253D140F70100935B008C
:10F8D00080935700E89507B600FCFDCFCE5CDE4F65
:10F8E000088119812A813B81C253D14000501F4FAA
:10F8F0002F4F3F4FCE5CDE4F088319832A833B8313
:10F90000C253D140C05EDE4F488159816A817B81FC
:10F91000C052D140DE011B9631E08C9111962C91A2
:10F9200011971296C75CDE4F2883C953D140C85C3B
:10F93000DE4F1882C853D14090E0C85CDE4FE881AA
:10F94000F981C853D1408E2B9F2B0C01FA01609393
:10F950005B0030935700E89511244E5F5F4F6F4F67
:10F960007F4F0EEFE02E0FEFF02ECE0CDF1CC114F8
:10F97000D10499F685E0C05EDE4F088119812A81A5
:10F980003B81C052D140F80120935B008093570027
:10F99000E89507B600FCFDCF81E180935700E8951C
:10F9A00035C0C05EDE4F88819981AA81BB81C0527B
:10F9B000D140B695A795979587957C018601ABE0D8
:10F9C000AA2EB12CAC0EBD1E0BC0D5016D915D01F0
:10F9D000C7010F947FFE0894E11CF11C01501040F8
:10F9E0000115110591F7A60160E070E0440F551F65
:10F9F000661F771FC05EDE4FE880F9800A811B8199
:10FA0000C052D1404E0D5F1D601F711F1A82C05E33
:10FA1000DE4F488359836A837B83C052D1407FC0C5
:10FA2000FA80C55CDE4FF882CB53D140C65CDE4F16
:10FA30001882CA53D1408B81C82EDD24C65CDE4FAC
:10FA400008811981CA53D140C02AD12A1A828981DA
:10FA5000BE016D5F7F4F843121F59601C05EDE4FA0
:10FA6000E880F9800A811B81C052D1400BBFF701A9
:10FA700087919691DB018C9311969C936E5F7F4FDB
:10FA8000D801C7010296A11DB11DC05EDE4F88835B
:10FA90009983AA83BB83C052D14022503040F1F6F3
:10FAA00036C0C05EDE4F288139814A815B81C052F9
:10FAB000D1400894C108D108760100E010E0089414
:10FAC000C11CD11C0894E11CF11C011D111DE20E8A
:10FAD000F31E041F151F21BDBB27A52F942F832FB5
:10FAE00082BD2F5F3F4F4F4F5F4FF89A80B5DB01CC
:10FAF0008D93BD012E153F054007510761F7C05E8C
:10FB0000DE4F288339834A835B83C052D1409601FC
:10FB10002D5F3F4FFB01108204C080EC8A8322E0FE
:10FB200030E08BE18093C6008091C00086FFFCCF5F
:10FB30008091C00080648093C000C15DDE4FF88179
:10FB4000CF52D140F093C6008091C00086FFFCCF19
:10FB50008091C00080648093C000432F3093C60022
:10FB60008091C00086FFFCCF8091C00080648093AC
:10FB7000C000922F2093C6008091C00086FFFCCF6A
:10FB80008091C00080648093C0008EE08093C600A6
:10FB90008091C00086FFFCCF8091C000806480937C
:10FBA000C00065E1C15DDE4FE880CF52D1406E25D7
:10FBB00069276427FE01319610C090819093C6009A
:10FBC0008091C00086FFFCCF31968091C000806498
:10FBD0008093C0006927215030402115310569F715
:10FBE0006093C6008091C00086FFFCCF8091C0006A
:10FBF00080648093C00085B1805885B9772081F4F6
:10FC0000C15DDE4F0881CF52D1400F5FC15DDE4F35
:10FC10000883CF52D14090E0A0E0B0E00D941AF4F8
:10FC200027982F9880E090E020ED37E0F901319798
:10FC3000F1F7019684369105C9F700008091C00064
:10FC40008D7F8093C00081E180935700E895EE2777
:10FC5000FF270994FFCF90E00D941AF497FB092E2B
:10FC600007260AD077FD04D02ED006D000201AF443
:10FC7000709561957F4F0895F6F7909581959F4F08
:10FC80000895A1E21A2EAA1BBB1BFD010DC0AA1FDD
:10FC9000BB1FEE1FFF1FA217B307E407F50720F0F5
:10FCA000A21BB30BE40BF50B661F771F881F991F70
:10FCB0001A9469F760957095809590959B01AC01B9
:10FCC000BD01CF010895AA1BBB1B51E107C0AA1FAC
:10FCD000BB1FA617B70710F0A61BB70B881F991FED
:10FCE0005A95A9F780959095BC01CD010895F99991
:10FCF000FECF92BD81BDF89A992780B50895262F31
:10FD0000F999FECF1FBA92BD81BD20BD0FB6F89400
:0EFD1000FA9AF99A0FBE01960895F894FFCF63
:00000001FF
